{
  "_format": "hh-sol-artifact-1",
  "contractName": "Election",
  "sourceName": "contracts/Election.sol",
  "abi": [
    {
      "anonymous": false,
      "inputs": [
        {
          "indexed": false,
          "internalType": "address",
          "name": "recipient",
          "type": "address"
        },
        {
          "indexed": false,
          "internalType": "uint256",
          "name": "voteId",
          "type": "uint256"
        }
      ],
      "name": "AddVote",
      "type": "event"
    },
    {
      "inputs": [
        {
          "internalType": "string",
          "name": "citizen_ssn",
          "type": "string"
        },
        {
          "internalType": "string",
          "name": "citizen_nationality",
          "type": "string"
        },
        {
          "internalType": "uint256",
          "name": "election_year",
          "type": "uint256"
        },
        {
          "internalType": "uint256",
          "name": "election_round",
          "type": "uint256"
        },
        {
          "internalType": "uint256",
          "name": "election_type",
          "type": "uint256"
        },
        {
          "internalType": "uint256",
          "name": "candidate_id",
          "type": "uint256"
        }
      ],
      "name": "addVote",
      "outputs": [],
      "stateMutability": "nonpayable",
      "type": "function"
    },
    {
      "inputs": [],
      "name": "getAll",
      "outputs": [
        {
          "components": [
            {
              "internalType": "uint256",
              "name": "id",
              "type": "uint256"
            },
            {
              "internalType": "address",
              "name": "username",
              "type": "address"
            },
            {
              "internalType": "string",
              "name": "citizen_ssn",
              "type": "string"
            },
            {
              "internalType": "string",
              "name": "citizen_nationality",
              "type": "string"
            },
            {
              "internalType": "uint256",
              "name": "election_year",
              "type": "uint256"
            },
            {
              "internalType": "uint256",
              "name": "election_round",
              "type": "uint256"
            },
            {
              "internalType": "uint256",
              "name": "election_type",
              "type": "uint256"
            },
            {
              "internalType": "uint256",
              "name": "candidate_id",
              "type": "uint256"
            },
            {
              "internalType": "uint256",
              "name": "timestamp",
              "type": "uint256"
            }
          ],
          "internalType": "struct Election.Vote[]",
          "name": "",
          "type": "tuple[]"
        }
      ],
      "stateMutability": "view",
      "type": "function"
    }
  ],
  "bytecode": "0x608060405234801561001057600080fd5b50610d99806100206000396000f3fe608060405234801561001057600080fd5b50600436106100365760003560e01c806338b845511461003b57806353ed514314610057575b600080fd5b6100556004803603810190610050919061080b565b610075565b005b61005f610259565b60405161006c9190610ab7565b60405180910390f35b600080805490509050600042905060006040518061012001604052808481526020013373ffffffffffffffffffffffffffffffffffffffff1681526020018a81526020018981526020018881526020018781526020018681526020018581526020018381525090806001815401808255809150506001900390600052602060002090600902016000909190919091506000820151816000015560208201518160010160006101000a81548173ffffffffffffffffffffffffffffffffffffffff021916908373ffffffffffffffffffffffffffffffffffffffff1602179055506040820151816002019080519060200190610171929190610689565b50606082015181600301908051906020019061018e929190610689565b506080820151816004015560a0820151816005015560c0820151816006015560e0820151816007015561010082015181600801555050336001600084815260200190815260200160002060006101000a81548173ffffffffffffffffffffffffffffffffffffffff021916908373ffffffffffffffffffffffffffffffffffffffff1602179055507f499390774120763b71dfe4188dd96eb13afb0237a4e8ec06a39bfb555a2bba403383604051610247929190610a8e565b60405180910390a15050505050505050565b60606000808054905067ffffffffffffffff8111156102a1577f4e487b7100000000000000000000000000000000000000000000000000000000600052604160045260246000fd5b6040519080825280602002602001820160405280156102da57816020015b6102c761070f565b8152602001906001900390816102bf5790505b5090506000805b60008054905081101561055d5760008181548110610328577f4e487b7100000000000000000000000000000000000000000000000000000000600052603260045260246000fd5b906000526020600020906009020160405180610120016040529081600082015481526020016001820160009054906101000a900473ffffffffffffffffffffffffffffffffffffffff1673ffffffffffffffffffffffffffffffffffffffff1673ffffffffffffffffffffffffffffffffffffffff1681526020016002820180546103b290610c02565b80601f01602080910402602001604051908101604052809291908181526020018280546103de90610c02565b801561042b5780601f106104005761010080835404028352916020019161042b565b820191906000526020600020905b81548152906001019060200180831161040e57829003601f168201915b5050505050815260200160038201805461044490610c02565b80601f016020809104026020016040519081016040528092919081815260200182805461047090610c02565b80156104bd5780601f10610492576101008083540402835291602001916104bd565b820191906000526020600020905b8154815290600101906020018083116104a057829003601f168201915b5050505050815260200160048201548152602001600582015481526020016006820154815260200160078201548152602001600882015481525050838381518110610531577f4e487b7100000000000000000000000000000000000000000000000000000000600052603260045260246000fd5b6020026020010181905250818061054790610c65565b925050808061055590610c65565b9150506102e1565b5060008167ffffffffffffffff8111156105a0577f4e487b7100000000000000000000000000000000000000000000000000000000600052604160045260246000fd5b6040519080825280602002602001820160405280156105d957816020015b6105c661070f565b8152602001906001900390816105be5790505b50905060005b8281101561067f57838181518110610620577f4e487b7100000000000000000000000000000000000000000000000000000000600052603260045260246000fd5b6020026020010151828281518110610661577f4e487b7100000000000000000000000000000000000000000000000000000000600052603260045260246000fd5b6020026020010181905250808061067790610c65565b9150506105df565b5080935050505090565b82805461069590610c02565b90600052602060002090601f0160209004810192826106b757600085556106fe565b82601f106106d057805160ff19168380011785556106fe565b828001600101855582156106fe579182015b828111156106fd5782518255916020019190600101906106e2565b5b50905061070b9190610771565b5090565b60405180610120016040528060008152602001600073ffffffffffffffffffffffffffffffffffffffff168152602001606081526020016060815260200160008152602001600081526020016000815260200160008152602001600081525090565b5b8082111561078a576000816000905550600101610772565b5090565b60006107a161079c84610afe565b610ad9565b9050828152602081018484840111156107b957600080fd5b6107c4848285610bc0565b509392505050565b600082601f8301126107dd57600080fd5b81356107ed84826020860161078e565b91505092915050565b60008135905061080581610d4c565b92915050565b60008060008060008060c0878903121561082457600080fd5b600087013567ffffffffffffffff81111561083e57600080fd5b61084a89828a016107cc565b965050602087013567ffffffffffffffff81111561086757600080fd5b61087389828a016107cc565b955050604061088489828a016107f6565b945050606061089589828a016107f6565b93505060806108a689828a016107f6565b92505060a06108b789828a016107f6565b9150509295509295509295565b60006108d083836109a4565b905092915050565b6108e181610b84565b82525050565b6108f081610b84565b82525050565b600061090182610b3f565b61090b8185610b62565b93508360208202850161091d85610b2f565b8060005b85811015610959578484038952815161093a85826108c4565b945061094583610b55565b925060208a01995050600181019050610921565b50829750879550505050505092915050565b600061097682610b4a565b6109808185610b73565b9350610990818560208601610bcf565b61099981610d3b565b840191505092915050565b6000610120830160008301516109bd6000860182610a70565b5060208301516109d060208601826108d8565b50604083015184820360408601526109e8828261096b565b91505060608301518482036060860152610a02828261096b565b9150506080830151610a176080860182610a70565b5060a0830151610a2a60a0860182610a70565b5060c0830151610a3d60c0860182610a70565b5060e0830151610a5060e0860182610a70565b50610100830151610a65610100860182610a70565b508091505092915050565b610a7981610bb6565b82525050565b610a8881610bb6565b82525050565b6000604082019050610aa360008301856108e7565b610ab06020830184610a7f565b9392505050565b60006020820190508181036000830152610ad181846108f6565b905092915050565b6000610ae3610af4565b9050610aef8282610c34565b919050565b6000604051905090565b600067ffffffffffffffff821115610b1957610b18610d0c565b5b610b2282610d3b565b9050602081019050919050565b6000819050602082019050919050565b600081519050919050565b600081519050919050565b6000602082019050919050565b600082825260208201905092915050565b600082825260208201905092915050565b6000610b8f82610b96565b9050919050565b600073ffffffffffffffffffffffffffffffffffffffff82169050919050565b6000819050919050565b82818337600083830152505050565b60005b83811015610bed578082015181840152602081019050610bd2565b83811115610bfc576000848401525b50505050565b60006002820490506001821680610c1a57607f821691505b60208210811415610c2e57610c2d610cdd565b5b50919050565b610c3d82610d3b565b810181811067ffffffffffffffff82111715610c5c57610c5b610d0c565b5b80604052505050565b6000610c7082610bb6565b91507fffffffffffffffffffffffffffffffffffffffffffffffffffffffffffffffff821415610ca357610ca2610cae565b5b600182019050919050565b7f4e487b7100000000000000000000000000000000000000000000000000000000600052601160045260246000fd5b7f4e487b7100000000000000000000000000000000000000000000000000000000600052602260045260246000fd5b7f4e487b7100000000000000000000000000000000000000000000000000000000600052604160045260246000fd5b6000601f19601f8301169050919050565b610d5581610bb6565b8114610d6057600080fd5b5056fea26469706673582212207d85ad16bcf50dfaf802ce1cbe2397fc89cbb49e77ccfc2eac4014c9a72b8b6764736f6c63430008040033",
  "linkReferences": {},
  "deployedLinkReferences": {}
}